{
  "_format": "hh-sol-artifact-1",
  "contractName": "Student",
  "sourceName": "contracts/Student.sol",
  "abi": [
    {
      "inputs": [
        {
          "internalType": "string",
          "name": "_fruit",
          "type": "string"
        }
      ],
      "name": "addFruits",
      "outputs": [],
      "stateMutability": "nonpayable",
      "type": "function"
    },
    {
      "inputs": [
        {
          "internalType": "uint256",
          "name": "",
          "type": "uint256"
        }
      ],
      "name": "fruits",
      "outputs": [
        {
          "internalType": "string",
          "name": "",
          "type": "string"
        }
      ],
      "stateMutability": "view",
      "type": "function"
    },
    {
      "inputs": [],
      "name": "getLength",
      "outputs": [
        {
          "internalType": "uint256",
          "name": "",
          "type": "uint256"
        }
      ],
      "stateMutability": "view",
      "type": "function"
    },
    {
      "inputs": [],
      "name": "noofruits",
      "outputs": [
        {
          "internalType": "uint256",
          "name": "",
          "type": "uint256"
        }
      ],
      "stateMutability": "view",
      "type": "function"
    },
    {
      "inputs": [
        {
          "internalType": "uint256",
          "name": "",
          "type": "uint256"
        }
      ],
      "name": "number",
      "outputs": [
        {
          "internalType": "uint256",
          "name": "",
          "type": "uint256"
        }
      ],
      "stateMutability": "view",
      "type": "function"
    },
    {
      "inputs": [],
      "name": "removeFruits",
      "outputs": [],
      "stateMutability": "nonpayable",
      "type": "function"
    }
  ],
  "bytecode": "0x60806040526040518060800160405280600160ff168152602001600260ff168152602001600360ff168152602001600460ff1681525060009060046200004792919062000129565b5060405180606001604052806040518060400160405280600581526020017f6d616e676f00000000000000000000000000000000000000000000000000000081525081526020016040518060400160405280600681526020017f6f72616e6765000000000000000000000000000000000000000000000000000081525081526020016040518060400160405280600581526020017f6c656d6f6e00000000000000000000000000000000000000000000000000000081525081525060019060036200011492919062000180565b503480156200012257600080fd5b50620005ce565b8280548282559060005260206000209081019282156200016d579160200282015b828111156200016c578251829060ff169055916020019190600101906200014a565b5b5090506200017c9190620001e0565b5090565b828054828255906000526020600020908101928215620001cd579160200282015b82811115620001cc578251829081620001bb9190620004e7565b5091602001919060010190620001a1565b5b509050620001dc9190620001ff565b5090565b5b80821115620001fb576000816000905550600101620001e1565b5090565b5b8082111562000223576000818162000219919062000227565b5060010162000200565b5090565b5080546200023590620002d6565b6000825580601f106200024957506200026a565b601f016020900490600052602060002090810190620002699190620001e0565b5b50565b600081519050919050565b7f4e487b7100000000000000000000000000000000000000000000000000000000600052604160045260246000fd5b7f4e487b7100000000000000000000000000000000000000000000000000000000600052602260045260246000fd5b60006002820490506001821680620002ef57607f821691505b602082108103620003055762000304620002a7565b5b50919050565b60008190508160005260206000209050919050565b60006020601f8301049050919050565b600082821b905092915050565b6000600883026200036f7fffffffffffffffffffffffffffffffffffffffffffffffffffffffffffffffff8262000330565b6200037b868362000330565b95508019841693508086168417925050509392505050565b6000819050919050565b6000819050919050565b6000620003c8620003c2620003bc8462000393565b6200039d565b62000393565b9050919050565b6000819050919050565b620003e483620003a7565b620003fc620003f382620003cf565b8484546200033d565b825550505050565b600090565b6200041362000404565b62000420818484620003d9565b505050565b5b8181101562000448576200043c60008262000409565b60018101905062000426565b5050565b601f821115620004975762000461816200030b565b6200046c8462000320565b810160208510156200047c578190505b620004946200048b8562000320565b83018262000425565b50505b505050565b600082821c905092915050565b6000620004bc600019846008026200049c565b1980831691505092915050565b6000620004d78383620004a9565b9150826002028217905092915050565b620004f2826200026d565b67ffffffffffffffff8111156200050e576200050d62000278565b5b6200051a8254620002d6565b620005278282856200044c565b600060209050601f8311600181146200055f57600084156200054a578287015190505b620005568582620004c9565b865550620005c6565b601f1984166200056f866200030b565b60005b82811015620005995784890151825560018201915060208501945060208101905062000572565b86831015620005b95784890151620005b5601f891682620004a9565b8355505b6001600288020188555050505b505050505050565b61097680620005de6000396000f3fe608060405234801561001057600080fd5b50600436106100625760003560e01c806302101e14146100675780633690239214610071578063431aabc21461008f57806376a0625a146100bf578063be1c766b146100db578063c4172162146100f9575b600080fd5b61006f610129565b005b61007961015b565b6040516100869190610304565b60405180910390f35b6100a960048036038101906100a4919061035f565b610161565b6040516100b69190610304565b60405180910390f35b6100d960048036038101906100d491906104d2565b610185565b005b6100e36101d5565b6040516100f09190610304565b60405180910390f35b610113600480360381019061010e919061035f565b6101e2565b604051610120919061059a565b60405180910390f35b600180548061013b5761013a6105bc565b5b600190038181906000526020600020016000610157919061028e565b9055565b60025481565b6000818154811061017157600080fd5b906000526020600020016000915090505481565b6001819080600181540180825580915050600190039060005260206000200160009091909190915090816101b991906107f7565b50600260008154809291906101cd906108f8565b919050555050565b6000600180549050905090565b600181815481106101f257600080fd5b90600052602060002001600091509050805461020d9061061a565b80601f01602080910402602001604051908101604052809291908181526020018280546102399061061a565b80156102865780601f1061025b57610100808354040283529160200191610286565b820191906000526020600020905b81548152906001019060200180831161026957829003601f168201915b505050505081565b50805461029a9061061a565b6000825580601f106102ac57506102cb565b601f0160209004906000526020600020908101906102ca91906102ce565b5b50565b5b808211156102e75760008160009055506001016102cf565b5090565b6000819050919050565b6102fe816102eb565b82525050565b600060208201905061031960008301846102f5565b92915050565b6000604051905090565b600080fd5b600080fd5b61033c816102eb565b811461034757600080fd5b50565b60008135905061035981610333565b92915050565b60006020828403121561037557610374610329565b5b60006103838482850161034a565b91505092915050565b600080fd5b600080fd5b6000601f19601f8301169050919050565b7f4e487b7100000000000000000000000000000000000000000000000000000000600052604160045260246000fd5b6103df82610396565b810181811067ffffffffffffffff821117156103fe576103fd6103a7565b5b80604052505050565b600061041161031f565b905061041d82826103d6565b919050565b600067ffffffffffffffff82111561043d5761043c6103a7565b5b61044682610396565b9050602081019050919050565b82818337600083830152505050565b600061047561047084610422565b610407565b90508281526020810184848401111561049157610490610391565b5b61049c848285610453565b509392505050565b600082601f8301126104b9576104b861038c565b5b81356104c9848260208601610462565b91505092915050565b6000602082840312156104e8576104e7610329565b5b600082013567ffffffffffffffff8111156105065761050561032e565b5b610512848285016104a4565b91505092915050565b600081519050919050565b600082825260208201905092915050565b60005b8381101561055557808201518184015260208101905061053a565b60008484015250505050565b600061056c8261051b565b6105768185610526565b9350610586818560208601610537565b61058f81610396565b840191505092915050565b600060208201905081810360008301526105b48184610561565b905092915050565b7f4e487b7100000000000000000000000000000000000000000000000000000000600052603160045260246000fd5b7f4e487b7100000000000000000000000000000000000000000000000000000000600052602260045260246000fd5b6000600282049050600182168061063257607f821691505b602082108103610645576106446105eb565b5b50919050565b60008190508160005260206000209050919050565b60006020601f8301049050919050565b600082821b905092915050565b6000600883026106ad7fffffffffffffffffffffffffffffffffffffffffffffffffffffffffffffffff82610670565b6106b78683610670565b95508019841693508086168417925050509392505050565b6000819050919050565b60006106f46106ef6106ea846102eb565b6106cf565b6102eb565b9050919050565b6000819050919050565b61070e836106d9565b61072261071a826106fb565b84845461067d565b825550505050565b600090565b61073761072a565b610742818484610705565b505050565b5b818110156107665761075b60008261072f565b600181019050610748565b5050565b601f8211156107ab5761077c8161064b565b61078584610660565b81016020851015610794578190505b6107a86107a085610660565b830182610747565b50505b505050565b600082821c905092915050565b60006107ce600019846008026107b0565b1980831691505092915050565b60006107e783836107bd565b9150826002028217905092915050565b6108008261051b565b67ffffffffffffffff811115610819576108186103a7565b5b610823825461061a565b61082e82828561076a565b600060209050601f831160018114610861576000841561084f578287015190505b61085985826107db565b8655506108c1565b601f19841661086f8661064b565b60005b8281101561089757848901518255600182019150602085019450602081019050610872565b868310156108b457848901516108b0601f8916826107bd565b8355505b6001600288020188555050505b505050505050565b7f4e487b7100000000000000000000000000000000000000000000000000000000600052601160045260246000fd5b6000610903826102eb565b91507fffffffffffffffffffffffffffffffffffffffffffffffffffffffffffffffff8203610935576109346108c9565b5b60018201905091905056fea26469706673582212209d905b50cfa8b77d92e0e75a05bf36b796d7453bdfb3c22484ba95bafec357cb64736f6c63430008180033",
  "linkReferences": {},
  "deployedLinkReferences": {}
}